:020000040800F2
:1000000090040020F51600087D1600087F160008F1
:1000100081160008831600088516000800000000FD
:10002000000000000000000000000000871600082B
:1000300089160008000000008B1600088D160008C5
:10004000291700082D170008311700083517000878
:10005000391700083D170008411700084517000828
:10006000491700084D1700085117000855170008D8
:10007000591700085D170008611700086517000888
:10008000691700086D170008711700087517000838
:10009000791700087D1700088117000885170008E8
:1000A000891700088D170008911700089517000898
:1000B000991700089D170008A1170008A517000848
:1000C000A9170008AD170008B1170008B5170008F8
:1000D000B9170008BD170008C1170008C5170008A8
:1000E000C9170008CD170008D1170008D517000858
:1000F000D9170008DD170008E1170008E517000808
:10010000000000000000000000000000E9170008E7
:1001100091160008ED170008F1170008F517000800
:10012000F9170008FD170008011800080518000855
:10013000091800080D180008000000000000000069
:100140001118000815180008191800080000000010
:10015000000000000000000000000000000000009F
:1001600000000000000000001D1800082118000811
:10017000251800080000000000000000000000003A
:10018000000000002918000838B5040009D004F167
:100190007005696809B900F01EF800F021F801281F
:1001A00001D1012032BD606A08B100F02AF800F0E8
:1001B0000AF821F02A01FFE7816000F01BF8BDE892
:1001C000324000F0B0BA2068416821F490414160AB
:1001D00020688168704700202870204600F0E0BB4E
:1001E000242169602068026852085200026020469B
:1001F00000F038B92068016841F001010160204633
:100200007047204600F02CBA30B500F170035C68EE
:10021000202C27D109B1140001D1012030BD1C7858
:10022000012C1FD001251D7000F15004C1642280F3
:10023000628000216161D960212159608268B2F534
:10024000805F04BF0169002907BFDFF8E023626116
:10025000DFF8DC13616100221A700068016841F068
:10026000800147E0022030BD30B500F158031C6A20
:10027000202C3DD109B1140001D1012030BD1C7EDC
:10028000012C35D001251D7641651A805A80002148
:100290009960FF228168B1F5805F04D1016949B995
:1002A00040F2FF1206E021B9016919B17F2199805E
:1002B00001E000229A800021596222221A6201681C
:1002C0008A6842F001028A608168B1F5805F04BFEC
:1002D0000169002907BFDFF85C239A60DFF8581333
:1002E000996000221A760068016841F4907101E07B
:1002F000022030BD0160002030BD70B5044640F6DC
:100300000F002568E9692A68AB6808400AD18806A9
:100310007AD5960678D5216E002974D02046BDE89E
:1003200070400847D80702D412F4907F6CD0C807F9
:1003300007D5D60505D501202862E56F45F00105F2
:10034000E567880708D5DD0706D5266802203062F4
:10035000E06F40F00400E067480708D5DD0706D5E8
:10036000266804203062E06F40F00200E067080772
:100370000AD5950601D4D80706D5256808232B622F
:10038000E06F40F00800E067080509D5530107D584
:1003900025684FF400602862E06F40F02000E067BD
:1003A000E06F002857D0880605D5910603D5216E49
:1003B00009B120468847E06F21688A68510602D457
:1003C00010F0280F1AD0204600F021FA206881682A
:1003D0004A060ED500F040F858B10FF2694141636A
:1003E000E06E00F01DFBB0B3E06E416BBDE8704005
:1003F00008472046BDE8704000F03ABB204600F0B8
:1004000037FB0020E06770BDC80209D55B0207D545
:100410004FF4801028622046BDE8704000F029BBF0
:10042000080607D5130605D5616EA1B12046BDE8C3
:100430007040084748060ED551060CD5286820F0B4
:100440004000286020216167002060662046BDE8EA
:10045000704000F00FBB70BD816821F040018160E9
:10046000E06E704770B50446744823681E68A16842
:10047000064020690E4361690643E0690E43064366
:100480001E6000225968E06821F440510143596020
:1004900000259E68A169206A26F430660E436849EB
:1004A00006438B429E6067480AD1006800F0030053
:1004B000032815D8DFE800F0024B5F38012010E078
:1004C00061498B4220D1006810F4403051D0B0F522
:1004D000803F3CD0B0F5003F4DD0B0F5403F23D039
:1004E0001020E169B1F5004F4FF6F0766AD140B1C6
:1004F000012842D0022843D0042846D008284DD0F5
:1005000054E000F0F3FC42E050498B420ED1006809
:1005100010F440202DD0B0F5802F18D0B0F5002F6A
:1005200029D0B0F5402FDBD10220DAE748498B42D1
:100530000FD1006810F440101BD0B0F5801F06D01A
:10054000B0F5001F17D0B0F5401FEDD0C8E704206C
:10055000C7E740498B42C3D1006810F4400008D07F
:10056000B0F5800FF3D0B0F5000F04D0B0F5400F18
:10057000EBE70020B5E70820B3E700F0BFFC06E09A
:100580006068354901EB50010CE000F091FC6168B6
:100590004A0802EB4002B2FBF1F205E06068410854
:1005A00001F58031B1FBF0F292B200E00125A2F139
:1005B0001000B04233D21640C2F342000643206816
:1005C000C6602DE040B1012809D002280AD00428D5
:1005D0000DD0082813D01AE000F088FC09E000F0E4
:1005E0008DFC06E060681D4901EB50010BE000F056
:1005F0005FFC616800EB5100B0FBF1F205E0606860
:10060000410801F50041B1FBF0F292B200E0012592
:10061000A2F11000B04202D22168CA6000E00125B8
:10062000002020666066284670BD00007D08000836
:1006300055080008CD080008A9080008F369FFFF65
:1006400000380140301002400044004000480040A3
:10065000004C0040005000400024F40000127A00DA
:1006600090F82410CA0706D502685368816A23F4FB
:1006700000330B43536090F824108A0706D50268B4
:100680005368C16A23F480330B43536090F82410FD
:100690004A0706D502685368016B23F480230B4395
:1006A000536090F824100A0706D502685368416B1E
:1006B00023F400430B43536090F82410CA0606D578
:1006C00002689368816B23F480530B43936090F826
:1006D00024108A0606D502689368C16B23F4005380
:1006E0000B43936090F824104A0610D502685368B3
:1006F000016C23F480130B435360036CB3F5801F2C
:1007000005D15368416C23F4C0030B43536090F848
:1007100024100A0606D501684A68806C22F400227B
:1007200002434A607047F8B5044604F170050020A2
:10073000E8606FF07E4700F013FC06462068016811
:100740000A0708D50097334600224FF400112046CF
:1007500000F016F860B9206801684A070AD50097CA
:10076000334600224FF48001204600F009F808B11A
:100770000320F2BD20206860A86000202870F2BD30
:100780002DE9F041069C05460E4690461F46286816
:10079000C1693140B1420CBF01200020404529D140
:1007A00014F1010FF3D000F0DBFBC01B844200D337
:1007B0005CB92868016821F4D071016000F01CF870
:1007C000002101700320BDE8F081286801684A0714
:1007D000DDD5C1690A05DAD54FF4006101622868E8
:1007E000026822F4D0720260002200F005F8C160B5
:1007F0000270E7E70020E6E72868816849084900B9
:10080000816005F1700020214160816070470168BE
:100810000A6822F490720A6001688A6852085200DD
:100820008A6020218167002202667047136823F0E6
:10083000800313600068016841F040010160704767
:1008400000000000406A00F1520100220A810A8083
:1008500000F00EB9416F21290FD10268B0F8521093
:1008600001B9E3E7C16C0B781385C16C4A1CC26403
:10087000B0F852104A1EA0F852207047416F21294B
:1008800011D10268B0F8521001B9CFE7C16C0B88E2
:10089000C3F308031385C16C8A1CC264B0F85210FC
:1008A0004A1EA0F85220704770B500F027F808D112
:1008B00000F02AF82B70416D4B1C00F019F821B99B
:1008C00029E0886940F00800886170BD70B500F0CB
:1008D00015F808D100F018F82B80416D8B1C00F042
:1008E00007F821B917E0886940F00800886170BDF9
:1008F000436525886E1E26802188704700F16002BE
:1009000001689369222B70478B8C456D00F15A0466
:1009100061880B40704701680B6823F490730B608B
:1009200001688B685B085B008B602021916100236C
:100930001360BDE8704000F019BB30B4002513E02F
:1009400050F8042BD30744BFA9F101039A18091FDB
:10095000042942F8045BFAD213468C0744BF158081
:100960009B1CC90748BF1D7050F8041B0029E7D124
:1009700030BC7047264881B0016841F00101016038
:10098000026802F0010200920099426842F080522F
:100990004260406800F080500090009801B07047BD
:1009A00010B586B004461422002101A800F0DFFA39
:1009B00021681848814229D11748816841F40021F3
:1009C0008160816801F4002100910099026842F47D
:1009D000002202604FF44061006800F400200090A3
:1009E000022200980D4801910292002103910322F6
:1009F00005210591049201A900F0C4FA002200210A
:100A0000342000F0B7FB342000F0D1FB06B010BD5D
:100A100018100240004C004014100240000800482A
:100A200038B590F821100024022900F1340203D0D7
:100A300004205060012411E000F012F80D686D08E8
:100A40006D000D60D16895688B406B60012180F866
:100A5000211080F82040116801B18847204632BD3E
:100A600001680B6823F00E030B60012301687047D7
:100A700070477047704730B40EE002684368024424
:100A80000830DC0744BFA9F10104E31852F8045B05
:100A900043F8045B091FF9D150F8041B0029ECD17D
:100AA00030BC70472DE9F843040019D02078DFF8F6
:100AB0006054C10716D5686800F00C0004280AD0FD
:100AC000686800F00C00082802BF686800F48030F5
:100AD000B0F5803F41D100F0E6F918B16068002818
:100AE00000F05F812078DFF8386481071BD56868E3
:100AF00010F00C0F07D0686800F00C0008286CD1CB
:100B00006868C10369D42868C0F3400000281CBF8E
:100B10002069012840F045812968606921F0F801C9
:100B200041EAC00129602178080740F18C80A06962
:100B3000DFF8F013002878D001220A6000F010FAE4
:100B40000746686AC0F3400000287CD100F008FA2C
:100B5000C01B0228F5D9032026E16068B0F5803F6C
:100B600004D1286840F48030286014E008B928686F
:100B70000AE0B0F5A02F286806D140F48020286054
:100B8000296841F4803105E020F48030286029682C
:100B900021F480212960E86AA168000941EA001077
:100BA000E862606860B100F0DBF9064600F07BF9AE
:100BB000002897D100F0D4F9801B6528F6D3CAE746
:100BC00000F0CEF9064600F06EF900288AD000F059
:100BD000C7F9801B6528F6D3BDE72069B0B10121B4
:100BE000316000F0BDF907462868C0F3400028B91D
:100BF00000F0B6F9C01B0228F6D9ACE72868616995
:100C000020F0F80040EAC10028608CE7306000F076
:100C1000A7F907462868C0F34000002883D000F0F9
:100C20009FF9C01B0228F5D995E7086000F098F9F4
:100C30000746686AC0F3400028B100F091F9C01B74
:100C40000228F6D987E72078410763D5E8690027AD
:100C5000C10009D4E86940F08050E8610127E869E3
:100C600000F0805000900098DFF8BC82D8F80000B7
:100C7000C10513D4D8F8000040F48070C8F8000013
:100C800000F06EF98146D8F80000C10506D400F0E6
:100C900067F9A0EB09006528F5D35CE7E068012857
:100CA00008D008B9286A09E00528286A06D140F06A
:100CB00004002862286A40F0010005E04008400076
:100CC0002862286A20F00400286241F28938E0682E
:100CD00068B100F045F98146286AC0F34000A0B928
:100CE00000F03EF9A0EB09004045F5D333E700F0F2
:100CF00037F98146286AC0F3400030B100F030F97E
:100D0000A0EB09004045F5D325E71FB1E86920F0C5
:100D10008050E861E069002845D0696801F00C0165
:100D2000082931D0022822D100F040F8074628686F
:100D3000C0F3406028B100F013F9C01B0228F6D9B7
:100D400009E76868616A226A20F474100843104356
:100D50006860012000F02BF804462868C0F340606A
:100D600008BB00F0FDF8001B0228F6D9F3E600F0FE
:100D70001DF804462868C0F34060A0B100F0F0F808
:100D8000001B0228F6D9E6E601280AD06868226A24
:100D900000F48031914202BF00F47010616A884211
:100DA00001D0012000E00020BDE8F2830020306681
:100DB00000F0D6B82DE9F0410400884643D05B4EE0
:100DC00000F06CF802D200F064F83CD12078504D6D
:100DD000810705D56A68A06822F0F00202436A60C4
:100DE0002178C80727D56168012902D100F05BF896
:100DF00004E00229286803D1C0F3406018B922E05A
:100E0000C0F34000F8B16868800841EA8001696079
:100E100000F0A6F807466868616800F00C00B0EBC7
:100E2000810F08D000F09CF8C01B41F28931884244
:100E3000F1D303202BE0306800F00700804504D296
:100E400000F027F801D0012021E02078410705D5E6
:100E50006A68E06822F4E06202436A602178080769
:100E600006D56968206921F4605141EAC0016960D2
:100E700000F01EF86A682E49264BC2F30312895C03
:100E8000C84018602548006800F0BCF90020BDE8A3
:100E9000F0813168C90848EAC1013160306800F06A
:100EA0000700404570472868C0F340407047000085
:100EB00010B520490A6802F00C00082814D100BFC0
:100EC0001FA3C2F38340D203185C896A09D500BF0F
:100ED0001FA4114B01F00F01625CB3FBF2F250430F
:100EE00010BD1549484310BD0B4810BD0948114AB3
:100EF000006813681149C3F3022206E005480D4A51
:100F0000006813680D49C3F3C222895CC84070476A
:100F1000001002400C00002000127A00080000209F
:100F20000000424280044242007000400020024023
:100F3000FC1500080410024000093D0020170008BD
:100F400002030405060708090A0B0C0D0E0F10100A
:100F50000102030405060708090A0B0C0D0E0F1009
:100F600001484068704700BF00000020704710B57E
:100F7000044610460A460146204600F063F9204622
:100F800010BD00002DE9F84F4FF0000E654A664B8A
:100F9000DFF898814FF00F0982460F4633E0644D29
:100FA000AA4514BF052504258D40254343F82C5040
:100FB000C143146801EA040C7C68E50348BF40EAB9
:100FC0000C0CC2F800C0546801EA040C7C68A5034C
:100FD00048BF40EA0C0CC2F804C0946801EA040C53
:100FE0007C68E50248BF40EA0C0CC2F808C0D4682F
:100FF00001EA040C79688C0248BF40EA0C0CC2F884
:101000000CC00EF1010E396831FA0EF000F0888044
:10101000012000FA0EFC1CEA0100F2D07C68022CD0
:1010200018BF122C4FEA8E0110D14FEADE040AEBF2
:10103000840401F01C05266A09FA05FB26EA0B0662
:10104000D7F810B00BFA05F5354325624FEA4E0488
:101050000325DAF8006097F804B0A540ED430BF0E3
:10106000030B2E400BFA04FB4BEA0606CAF800609D
:101070007E68012E18BF022E03D0112E18BF122E2B
:1010800017D1DAF80860D7F80CB02E400BFA04FB41
:101090004BEA0606CAF80860DAF8046026EA0C0C87
:1010A0007E68C6F3001606FA0EF646EA0C06CAF883
:1010B0000460DAF80C603540BE6806FA04F42C438C
:1010C000CAF80C407C68E4009BD5D8F8004044F096
:1010D0000104C8F800404FEA9E0CD8F8005005F013
:1010E0000105009501F00C01009C53F82C5009FA01
:1010F00001F425EA0404BAF1904F08BF00250ED090
:101100000C4DAA4508BF012509D00B4DAA4508BFC3
:10111000022504D0094DAA457FF441AF032543E7DA
:10112000BDE8F18F000401400800014018100240A2
:10113000001000480004004800080048000C004867
:101140000901020002D4294881547047284B02F05B
:101150000F021A4402F8041C7047264B19684FF618
:10116000FF020002114000F4E060084322490843F6
:101170001860704770B51F4B1C68C4F3022301242C
:10118000C3F10705052D2EBF0F2504FA05F56D1EC9
:101190001E1D072E34BF0023DB1E2940994004FA90
:1011A00003F3BDE870405B1E1A401143C8E701001D
:1011B00007D4012200F01F01104B8A40400943F878
:1011C0002020704710B5401EB0F1807F01D3012070
:1011D00010BD0B4C60600F214FF0FF30FFF7B0FFE8
:1011E0000021A16007202060002010BD00E400E085
:1011F00018ED00E00CED00E00000FA0500E100E071
:1012000010E000E038B50D4D0D4B2A7804464FF440
:101210007A711868B1FBF2F2B0FBF2F0FFF7D2FF7F
:1012200050B9102C08D2002221464FF0FF30FFF7B2
:10123000A1FFAC60002032BD012032BD00000020C3
:101240000C00002062F30F2262F31F42401810F0DE
:10125000030308D0C91A1FD3DB0748BF00F8012DCC
:1012600028BF20F8022D130030B41446154610395B
:1012700028BF20E93C00FAD8490728BF20E90C0024
:1012800048BF40F8042D890028BF20F8022D48BF30
:1012900000F8012D30BC7047C91818BF00F8012DA7
:1012A000CB0728BF00F8012D704700002DE9FC4155
:1012B0000546DFF8A0612868C10353D5B069002452
:1012C000C10009D4B06940F08050B0610124B06918
:1012D00000F0805000900098DFF87C713868C105FC
:1012E00011D4386840F480703860FFF739FE8046CA
:1012F0003868C10507D4FFF733FEA0EB0800652866
:10130000F6D30320A4E0F06910F440701EBF6968B2
:1013100001F4407188421AD0DFF84011F0690122CF
:101320000A60002320F440700B60F061C0070ED506
:10133000FFF716FE0746F069C0F3400038B9FFF723
:101340000FFEC01B41F289318842F4D3D9E7F2691C
:10135000686822F440720243F2611CB1B06920F067
:101360008050B0612878C10705D5F26AA868920854
:1013700040EA8202F2622978880705D5F16AE868B6
:1013800021F440310143F1622978480705D5F16A1B
:10139000286921F440210143F1622978880605D5A6
:1013A000F16AE86921F010010143F16229688803BC
:1013B00005D53168A86B21F480010143316029789B
:1013C000480605D5F16A286A21F020010143F1623F
:1013D0002978080705D5F16A686921F440110143AD
:1013E000F1622978C80605D5F16AA86921F440019F
:1013F0000143F1622968880505D53168E86A21F45E
:101400000001014331602978080605D5B16A686A90
:1014100021F4F8710143B1622968C80505D5B16AA4
:10142000A86A21F478510143B1622968C80405D53E
:10143000F16A286B21F480710143F1622968880404
:1014400005D5F16A686B21F400710143F162002057
:10145000BDE8F681041002400070004040044242A2
:10146000F8B500F097F800F053F82648264C0168CC
:101470000FF214150FF204163DA741F4002101608C
:101480004FF416520068214900F4002000900098A3
:1014900021600020A060E06020610C21A061E0617B
:1014A00020626062626061612046FEF76DFE02228A
:1014B00000216846FFF75BFD022269462046FEF7E1
:1014C000D3FE9DF8000031280DD10A22394620466E
:1014D000FEF79AFE03208DF80000092229462046D7
:1014E000FEF792FE09E03028F7D10A223146204665
:1014F000FEF78AFE03208DF800004FF47A7000F0AA
:101500005BF8D9E71410024010000020004C0040A6
:1015100080B59EB02822002105A8FFF728FD1422DF
:1015200000216846FFF723FD3C2200210FA8FFF7AA
:101530001EFD0221012205910992102100220A912B
:101540000C9205A8FFF7AEFA0F2000900021019140
:101550000291039104916846FFF72CFC08210022B8
:101560000F9114920FA8FFF7A1FE1FB000BD00005D
:101570004E756D6265725F310D0A00004E756D62C9
:1015800065725F300D0A00004E6F7468696E670DFA
:101590000A00000080B50748016841F010010160B1
:1015A0000320FFF7DAFD0020FFF72CFEFFF7E2F93A
:1015B000002002BD0020024038B50446FFF7D0FCF1
:1015C00014F1010F054602D0044801786418FFF7B2
:1015D000C7FC401BA042FAD331BD00BF0000002071
:1015E0000448054A016841F4700101604FF0006051
:1015F0001060704788ED00E008ED00E0000000009A
:1016000000000000010203040607080910B507499D
:1016100079441831064C7C44163404E00A68081DED
:10162000114488470146A142F8D110BD2C000000AA
:101630004C0000004EF68851CEF20001086840F4DC
:1016400070000860BFF34F8FBFF36F8F4FF00070D3
:10165000E1EE100A70470000E3F2FFFF8000000097
:1016600010000020000000000FF4FFFF1000000039
:101670009400000000000020000000007047FEE71A
:10168000FEE7FEE7FEE770477047704700F006B8D8
:101690000148FEF732BE00001000002002484168F9
:1016A00002788A18426070470000002000F00DF8B0
:1016B000002801D0FFF7AAFFAFF300800020AFF3AE
:1016C0000080FFF7CDFE00F002F80120704700F027
:1016D00001B800000746384600F002F8FBE70000BA
:1016E00080B5AFF30080024A11001820ABBEFBE7C3
:1016F000260002000148804701480047E115000824
:101700001517000801000000000000001000000094
:1017100000127A00AFF30080FFF78CFFFFF7C6FFDF
:101720000000000001020304FFF7FEBFFFF7FEBF49
:10173000FFF7FEBFFFF7FEBFFFF7FEBFFFF7FEBFDD
:10174000FFF7FEBFFFF7FEBFFFF7FEBFFFF7FEBFCD
:10175000FFF7FEBFFFF7FEBFFFF7FEBFFFF7FEBFBD
:10176000FFF7FEBFFFF7FEBFFFF7FEBFFFF7FEBFAD
:10177000FFF7FEBFFFF7FEBFFFF7FEBFFFF7FEBF9D
:10178000FFF7FEBFFFF7FEBFFFF7FEBFFFF7FEBF8D
:10179000FFF7FEBFFFF7FEBFFFF7FEBFFFF7FEBF7D
:1017A000FFF7FEBFFFF7FEBFFFF7FEBFFFF7FEBF6D
:1017B000FFF7FEBFFFF7FEBFFFF7FEBFFFF7FEBF5D
:1017C000FFF7FEBFFFF7FEBFFFF7FEBFFFF7FEBF4D
:1017D000FFF7FEBFFFF7FEBFFFF7FEBFFFF7FEBF3D
:1017E000FFF7FEBFFFF7FEBFFFF7FEBFFFF7FEBF2D
:1017F000FFF7FEBFFFF7FEBFFFF7FEBFFFF7FEBF1D
:10180000FFF7FEBFFFF7FEBFFFF7FEBFFFF7FEBF0C
:10181000FFF7FEBFFFF7FEBFFFF7FEBFFFF7FEBFFC
:0C182000FFF7FEBFFFF7FEBFFFF7FEBFA3
:0400000508001715C3
:00000001FF
